:020000040800F2
:2080000008040020AD810008198D0008BF8C0008158D0008F5810008918E000800000000AE
:20802000000000000000000000000000578D0008F981000800000000558D0008598D0008FA
:20804000C7810008C7810008C7810008C7810008C7810008C7810008C7810008C7810008A0
:20806000C7810008C7810008C7810008C7810008C7810008C7810008C7810008C781000880
:20808000C7810008C7810008C781000800000000000000000000000000000000C7810008A0
:2080A000C7810008C7810008C7810008C7810008C7810008C7810008C7810008C781000840
:2080C000C7810008C7810008C7810008C7810008C7810008C7810008C78100080000000070
:2080E000C7810008C7810008C781000800000000000000000000000000000000C781000840
:2081000000000000C7810008C7810008C7810008000000000000000000000000000000006F
:20812000C7810008C7810008C7810008C7810008C7810008000000000000000000000000AF
:20814000000000000000000000000000C7810008C7810008C7810008C7810008C78100088F
:20816000C7810008C78100080000000000000000000000000000000000000000000000005F
:2081800000000000C78100080000000000000000C7810008C7810008DFF80CD000F018F83C
:2081A00000480047B98E0008080400200648804706480047FEE7FEE7FEE7FEE7FEE7FEE7AD
:2081C000FEE7FEE7FEE7FEE7298E000899810008064C074D06E0E06840F0010394E807009F
:2081E00098471034AC42F6D3FFF7DAFFFC8E00081C8F000800BFFEE7704731B500F000F967
:208200000546009C601C00B1641C00BF00F0F8F8401BA042FAD338BDF8B503460A460025C1
:20822000002400200021CDE0012606FA01F5166806EA0504AC4273D15668022E02D05668E8
:20824000122E13D1CF0803F1200656F827004E07F70E0F26BE40B0434F07FF0E1669BE4034
:208260003043CF0803F1200646F8270018684F000326BE40B043167906F003064F00BE4071
:20828000304318605668012E08D05668022E05D05668112E02D05668122E13D198684F006B
:2082A0000326BE40B0434F00D668BE4030439860586801268E40B0431679C6F300168E40DA
:2082C00030435860D8684F000326BE40B0434F009668BE403043D860566806F08056B6F1A3
:2082E000805F6ED100BF00260096384E366846F48046364F3E603E46366806F48046009626
:2083000000BF00BF324E8F0856F827008E07370F0F26BE40B0432F4EB34202D1002615E0F2
:208320004FE02D4EB34201D101260FE02B4EB34201D102260AE02A4EB34201D1032605E017
:20834000284EB34201D1042600E007268F073F0FBE4030431E4E8F0846F82700224E3068E4
:20836000A043566806F48036B6F5803F00D120431D4E3060361D3068A043566806F4003657
:20838000B6F5003F00D12043174E361D3060361D3068A043566806F48016B6F5801F00D140
:2083A0002043114E08363060361D3068A043566806F40016B6F5001F00D120430A4E0C36F9
:2083C0003060491C1029FFF42FAFF8BD4438024008380140000002400004024000080240D8
:2083E000000C024000100240003C014042694A40426170470AB1816101E00B0483617047A9
:2084000001480068704700000000002002480068401C0149086070470000002010B50D4823
:20842000006840F400700B4908600846006840F4806008600846006840F4807008600320DD
:2084400000F088F8002000F007F800F019F8002010BD0000003C024070B50446074800680B
:208460004FF47A71B0FBF1F5284600F00AFC00222146501E00F02FF8002070BD040000205A
:2084800010B5032000F066F8002211466FF00B0000F021F8002211466FF00A0000F01BF8D5
:2084A000002211466FF0090000F015F800221146501F00F010F800221146101F00F00BF863
:2084C00000221146901E00F006F800221146501E00F001F810BD2DE9F05F80460D46164610
:2084E000002700F01BFC074639462A46334601F00700C0F1070ABAF1040F02D94FF0040AF9
:2085000001E0C0F1070AD14600F1040ABAF1070F02D24FF0000A01E0A0F1030AD4464FF0EC
:20852000010A0AFA09FAAAF1010A0AEA020A0AFA0CFA4FF0010B0BFA0CFBABF1010B0BEA85
:20854000030B4AEA0B042146404600F0EFFBBDE8F09F000000BF00F00702064B19684FF600
:20856000FF031940044B0B4343EA0221014B196000BF70470CED00E00000FA0570B5044631
:208580000D4600266D48006800F00F00A84209D26A490D700846006800F00F00A84201D0E1
:2085A000012070BD207800F00200022807D16448006820F0F000A1680843614908602078CF
:2085C00000F00100002877D06068012807D15C4808380068C0F34040B8B90120E1E76068D1
:2085E000022802D06068032807D1554808380068C0F3406048B90120D3E7514808380068FF
:20860000C0F3400008B90120CBE74D48006820F00300616808434A490860FFF7F1FE064683
:208620006068012810D108E0FFF7EAFE801B41F28831884201D90320B3E74148006800F0D9
:208640000C000428F0D137E06068022810D108E0FFF7D6FE801B41F28831884201D9032037
:208660009FE73748006800F00C000828F0D123E06068032810D108E0FFF7C2FE801B41F25D
:208680008831884201D903208BE72D48006800F00C000C28F0D10FE008E0FFF7B1FE801B03
:2086A00041F28831884201D903207AE72448006800F00C000028F0D12048006800F00F001E
:2086C000A84209D91D490D700846006800F00F00A84201D0012064E7207800F00400042857
:2086E00007D11748006820F4E050E168084314490860207800F00800082808D110480068E5
:2087000020F46040216940EAC1000D49086000F023F80B49096801F0F001F02292FAA2F28E
:20872000B2FA82F2D140074A515CC840064908600020FFF791FE002033E70000003C0240EE
:2087400008380240E48E00080400002001480068704700000400002070B5002100220023E2
:208760000020274C246804F00C0424B1042C04D0082C41D103E0234840E023483EE0204C54
:20878000241F246804F03F011D4C241F246804F4800484B11C4CB4FBF1F5194C241F2468BC
:2087A00047F6C076344096FAA6F6B6FA86F6F44005FB04F20FE0134CB4FBF1F5104C241FCE
:2087C000246847F6C076344096FAA6F6B6FA86F6F44005FB04F20A4C241F246804F4403413
:2087E0004FF4403595FAA5F5B5FA85F5EC40641C6300B2FBF3F001E0024800BF00BF70BDFA
:20880000083802400024F40040787D0138B504460025207800F00100002874D0F748006890
:2088200000F00C0004280DD0F448006800F00C00082813D1F148001F006800F48000B0F5A6
:20884000800F0BD1ED4808380068C0F34040002859D06068002856D1012038BD00BF606898
:20886000B0F5803F08D1E5480838006840F48030E249083908601EE06068B0F5A02F0DD116
:20888000DE480838006840F48020DC49083908600846006840F4803008600CE0D74808381B
:2088A000006820F48030D549083908600846006820F48020086000BF606890B1FFF7A0FD98
:2088C000054606E0FFF79CFD401B642801D90320C3E7CA4808380068C0F340400028F1D074
:2088E00011E0FFF78DFD054606E0FFF789FD401B642801D90320B0E7C04808380068C0F37C
:2089000040400028F1D1207800F00200022869D1BA48006800F00C0058B1B848006800F038
:208920000C00082821D1B548001F006800F48000D8B9B24808380068C0F3400020B1E068D2
:20894000012801D0012088E7AC480838006820F0F800F82292FAA2F2B2FA82F22169914034
:208960000843A649083908603CE0E06828B30120A3490860FFF744FD054606E0FFF740FDC5
:20898000401B022801D9032067E79C4808380068C0F340000028F1D098480838006820F007
:2089A000F800F82292FAA2F2B2FA82F221699140084392490839086014E0002090490860E6
:2089C000FFF71EFD054606E0FFF71AFD401B022801D9032041E7894808380068C0F3400032
:2089E0000028F1D1207800F0080008282CD16069A8B1012083490860FFF702FD054606E033
:208A0000FFF7FEFC401B022801D9032025E77B486C300068C0F340000028F1D014E0002021
:208A200078490860FFF7ECFC054606E0FFF7E8FC401B022801D903200FE770486C300068F0
:208A4000C0F340000028F1D1207800F0040004287FD100BF0020009068483830006840F012
:208A600080506649383108600846006800F08050009000BF00BF6448006840F4807062493F
:208A80000860FFF7BDFC054606E0FFF7B9FC401B022801D90320E0E65B48006800F48070AC
:208AA0000028F2D000BFA068012808D153486830006840F001005149683108601DE0A06897
:208AC00005280DD14D486830006840F004004B49683108600846006840F0010008600CE0F2
:208AE00046486830006820F001004449683108600846006820F00400086000BFA068A0B1FF
:208B0000FFF77EFC054608E0FFF77AFC401B41F28831884201D903209FE638486830006833
:208B2000C0F340000028EFD013E0FFF769FC054608E0FFF765FC401B41F28831884201D998
:208B400003208AE62D4868300068C0F340000028EFD1A069F0B32948006800F00C00082881
:208B600071D0A069022858D1002025490866FFF747FC054606E0FFF743FC401B022801D95E
:208B800003206AE61D4808380068C0F340600028F1D1D4E90701084347F6C07292FAA2F279
:208BA000B2FA82F2616A914008430122A16AC2EB51014FF4403292FAA2F2B2FA82F29140BB
:208BC00008434FF0706292FAA2F2B2FA82F2E16A914000E039E008430849091F0860012097
:208BE00007490866FFF70CFC05460FE0FFF708FC401B02280AD903202FE600000838024063
:208C000000004742800E47420070004010480068C0F340600028E9D017E000200D49086635
:208C2000FFF7EEFB054606E0FFF7EAFB401B022801D9032011E606480068C0F3406000289F
:208C4000F2D102E0FFE7012007E6002005E600000038024000004742042808D14FF0E02128
:208C6000096941F004014FF0E022116107E04FF0E021096921F004014FF0E0221161704780
:208C8000704770B504462546681EB0F1807F01D301200FE0681E4FF0E02148610F214FF05B
:208CA000FF3000F043F800204FF0E021886107200861002070BD10B5FFF7E2FF10BD00BF0C
:208CC000FEE7000000B587B000BF002001900F48006840F001000D4908600846006800F0FF
:208CE0000100019000BF00BF002220210848FFF781FB202002900120039000200490059070
:208D000002A90348FFF788FA07B000BD303802400000024000BFFEE7704700000248006878
:208D2000C0F30220704700000CED00E010B5002807DA0A07140E054A00F00F031B1FD4541A
:208D400003E00A07130E024A135410BD18ED00E000E400E07047704710B5FFF757FBFFF764
:208D6000AAFF10BD10B592B000BF002000902848006840F08050264908600846006800F0B2
:208D80008050009000BF00BF00BF002000902148006840F440401F4908600846006800F487
:208DA0004040009000BF00BF022006900120099010200A9000200C9006A8FFF727FD18B19C
:208DC0008A2115A000F066F80F20019000200290039004900590002101A8FFF7CFFB18B164
:208DE00098210DA000F056F8FFF7B0FC4FF47A71B0FBF1F42046FFF744FF0420FFF72CFF8B
:208E000000221146501EFFF766FB12B010BD000040380240007000402E2E2F5372632F6DCC
:208E200061696E2E630000001448006840F47000124908601248006840F00100104908608A
:208E400000200F49083108600D4800680D4908400B4908600C48091D0860081F006820F45D
:208E60008020091F0860002005490C310860074802498039086062B67047000088ED00E0D0
:208E800000380240FFFFF6FE103000240080000800BFFEE700BFFEE702E008C8121F08C186
:208EA000002AFAD170477047002001E001C1121F002AFBD17047000008480068FFF7AEFA58
:208EC000FFF750FFFFF7FEFE07E020210448FFF78DFA4FF47A70FFF790F9F6E7FCBF00081E
:208EE000000002400000000000000000010203040607080900000000010203041C8F00084B
:208F00000000002008000000988E0008248F00080800002000040000A88E000800000000D6
:208F20000024F400FFFFFFFFFFFFFFFFFFFFFFFFFFFFFFFFFFFFFFFFFFFFFFFFFFFFFFFF35
:208F4000FFFFFFFFFFFFFFFFFFFFFFFFFFFFFFFFFFFFFFFFFFFFFFFFFFFFFFFFFFFFFFFF31
:208F6000FFFFFFFFFFFFFFFFFFFFFFFFFFFFFFFFFFFFFFFFFFFFFFFFFFFFFFFFFFFFFFFF11
:208F8000FFFFFFFFFFFFFFFFFFFFFFFFFFFFFFFFFFFFFFFFFFFFFFFFFFFFFFFFFFFFFFFFF1
:208FA000FFFFFFFFFFFFFFFFFFFFFFFFFFFFFFFFFFFFFFFFFFFFFFFFFFFFFFFFFFFFFFFFD1
:20BFE000FFFFFFFFFFFFFFFFFFFFFFFFFFFFFFFFFFFFFFFFFFFFFFFFFFFFFFFFF07C80472A
:20C00000FFFFFFFFFFFFFFFFFFFFFFFFFFFFFFFFFFFFFFFFFFFFFFFFFFFFFFFFFFFFFFFF40
:20C02000FFFFFFFFFFFFFFFFFFFFFFFFFFFFFFFFFFFFFFFFFFFFFFFFFFFFFFFFFFFFFFFF20
:20C04000FFFFFFFFFFFFFFFFFFFFFFFFFFFFFFFFFFFFFFFFFFFFFFFFFFFFFFFFFFFFFFFF00
:20C06000FFFFFFFFFFFFFFFFFFFFFFFFFFFFFFFFFFFFFFFFFFFFFFFFFFFFFFFFFFFFFFFFE0
:20FFE000FFFFFFFFFFFFFFFFFFFFFFFFFFFFFFFFFFFFFFFFFFFFFFFFFFFFFFFF692F13343E
:0400000508008199D5
:00000001FF
